:100000000C9462000C9427020C9400020C948A0059
:100010000C948A000C948A000C948A000C948A0038
:100020000C948A000C948A000C948A000C948A0028
:100030000C948A000C948A000C948A000C948A0018
:100040000C94B6010C948A000C948A000C948A00DB
:100050000C948A000C948A000C948A000C948A00F8
:100060000C948A000C948A000000000024002700F1
:100070002A0000000000250028002B0000000000DE
:1000800023002600290004040404040404040202DA
:100090000202020203030303030301020408102007
:1000A0004080010204081020010204081020000012
:1000B0000008000201000003040700000000000027
:1000C0000000110311241FBECFEFD8E0DEBFCDBF6B
:1000D00011E0A0E0B1E0E4E4F6E002C005900D928A
:1000E000A430B107D9F721E0A4E0B1E001C01D922E
:1000F000AD3CB207E1F710E0C2E6D0E004C02197C2
:10010000FE010E941A03C136D107C9F70E944E02B0
:100110000C9420030C940000833081F028F481308B
:1001200099F08230A1F008958730A9F08830B9F0B5
:100130008430D1F4809180008F7D03C08091800055
:100140008F7780938000089584B58F7702C084B53F
:100150008F7D84BD08958091B0008F7703C080911A
:10016000B0008F7D8093B0000895CF93DF93282F48
:1001700030E0F901E255FF4F8491F901E656FF4F57
:10018000D491F901EA57FF4FC491CC2391F081112A
:100190000E948C00EC2FF0E0EE0FFF1FE458FF4FA1
:1001A000A591B491EC91ED2381E090E021F480E001
:1001B00002C080E090E0DF91CF9108951F93CF932C
:1001C000DF93282F30E0F901E255FF4F8491F901C8
:1001D000E656FF4FD491F901EA57FF4FC491CC2363
:1001E000C9F0162F81110E948C00EC2FF0E0EE0F69
:1001F000FF1FEE58FF4FA591B4918FB7F8941111DE
:1002000005C09C91ED2FE095E92302C0EC91ED2B08
:10021000EC938FBFDF91CF911F910895CF93DF9320
:1002200090E0FC01E656FF4F2491FC01EA57FF4F96
:100230008491882361F190E0880F991FFC01E859AF
:10024000FF4FC591D491FC01EE58FF4FA591B49199
:10025000611109C09FB7F894888120958223888313
:10026000EC912E230BC0623061F49FB7F894388173
:10027000822F809583238883EC912E2B2C939FBF14
:1002800006C08FB7F894E8812E2B28838FBFDF91AB
:10029000CF91089508958CE00E94B50061E0892B0C
:1002A00009F060E08CE00C94DE0083E00E94B50071
:1002B00061E0892B09F060E083E00E94DE0082E0CB
:1002C0000E94B500892B69F4E0910401EA3008F03E
:1002D0004CC083E1E802F0011124E15FFE4F10827F
:1002E0000895EFE0F1E080E090E02081211130C03E
:1002F00023E1289FF001299FF00D1124E15FFE4FBB
:1003000091E0908348EC50E060E070E041835283DC
:10031000638374832FEF3FEF368325832BE431E033
:10032000328721879FB7F89440910B0150910C01BF
:1003300060910D0170910E019FBF438754876587BF
:100340007687108A178621E030E0328B218B06C039
:10035000019673968A30910541F68FEF082E000CB6
:10036000990B909305018093040108951F920F92B9
:100370000FB60F9211242F933F938F939F93AF93B8
:10038000BF9380910B0190910C01A0910D01B09150
:100390000E0130910A0123E0230F2D3720F401963E
:1003A000A11DB11D05C026E8230F0296A11DB11D98
:1003B00020930A0180930B0190930C01A0930D01EF
:1003C000B0930E018091060190910701A091080160
:1003D000B09109010196A11DB11D80930601909372
:1003E0000701A0930801B0930901BF91AF919F91BC
:1003F0008F913F912F910F900FBE0F901F901895E6
:100400001F920F920FB60F9211242F933F934F9389
:100410005F936F937F938F939F93AF93BF93EF936C
:10042000FF93E0910201F09103010995FF91EF9193
:10043000BF91AF919F918F917F916F915F914F91FC
:100440003F912F910F900FBE0F901F9018951F9204
:100450000F920FB60F9211242F933F934F935F93F8
:100460006F937F938F939F93AF93BF93EF93FF937C
:10047000E0910001F09101010995FF91EF91BF9189
:10048000AF919F918F917F916F915F914F913F912C
:100490002F910F900FBE0F901F901895789484B5F0
:1004A000826084BD84B5816084BD85B5826085BD70
:1004B00085B5816085BD80916E00816080936E00FE
:1004C00010928100809181008260809381008091F0
:1004D00081008160809381008091800081608093A1
:1004E00080008091B10084608093B1008091B00061
:1004F00081608093B00080917A00846080937A005C
:1005000080917A00826080937A0080917A00816085
:1005100080937A0080917A00806880937A001092AC
:10052000C10061E08CE00E940E0162E082E00E9466
:100530000E0161E083E00E940E0161E083E00E9411
:10054000DE0085E591E090930101809300018091A8
:1005500069008C7F816080936900E89A80E0E82ED2
:1005600080E0F82ECFE0D1E007E111E08881882318
:1005700009F448C08FB7F89480900B0190900C015B
:10058000A0900D01B0900E018FBF8B859C85AD852D
:10059000BE85B501A401481B590B6A0B7B0B8981F1
:1005A0009A81AB81BC81481759076A077B0700F124
:1005B0008881813019F0823039F011C0E985FA85DF
:1005C00089899A8909950BC061E0F80180818111C0
:1005D00060E0F8016083319780810E94DE008B86A5
:1005E0009C86AD86BE868F8598890196988B8F876D
:1005F0008D819E8197FD06C02F8538892817390780
:100600000CF0188263960D5E1F4FF1E0CD3CDF07C2
:1006100009F0ACCFE114F10409F4A4CF0E9400006A
:10062000A1CFEFE0F1E01082739681E0ED3CF80796
:10063000D1F70895EE0FFF1F0590F491E02D099476
:04064000F894FFCF5C
:040644004A014A011C
:107E0000112484B714BE81FFF0D085E080938100F7
:107E100082E08093C00088E18093C10086E0809377
:107E2000C20080E18093C4008EE0C9D0259A86E02C
:107E300020E33CEF91E0309385002093840096BBD3
:107E4000B09BFECF1D9AA8958150A9F7CC24DD24C4
:107E500088248394B5E0AB2EA1E19A2EF3E0BF2EE7
:107E6000A2D0813461F49FD0082FAFD0023811F036
:107E7000013811F484E001C083E08DD089C08234E0
:107E800011F484E103C0853419F485E0A6D080C0E4
:107E9000853579F488D0E82EFF2485D0082F10E0AE
:107EA000102F00270E291F29000F111F8ED06801E7
:107EB0006FC0863521F484E090D080E0DECF843638
:107EC00009F040C070D06FD0082F6DD080E0C81688
:107ED00080E7D80618F4F601B7BEE895C0E0D1E017
:107EE00062D089930C17E1F7F0E0CF16F0E7DF06D8
:107EF00018F0F601B7BEE89568D007B600FCFDCFD4
:107F0000A601A0E0B1E02C9130E011968C91119780
:107F100090E0982F8827822B932B1296FA010C0160
:107F200087BEE89511244E5F5F4FF1E0A038BF0790
:107F300051F7F601A7BEE89507B600FCFDCF97BE46
:107F4000E89526C08437B1F42ED02DD0F82E2BD052
:107F50003CD0F601EF2C8F010F5F1F4F84911BD097
:107F6000EA94F801C1F70894C11CD11CFA94CF0C13
:107F7000D11C0EC0853739F428D08EE10CD085E9AC
:107F80000AD08FE07ACF813511F488E018D01DD067
:107F900080E101D065CF982F8091C00085FFFCCF94
:107FA0009093C60008958091C00087FFFCCF809118
:107FB000C00084FD01C0A8958091C6000895E0E648
:107FC000F0E098E1908380830895EDDF803219F02E
:107FD00088E0F5DFFFCF84E1DECF1F93182FE3DFCA
:107FE0001150E9F7F2DF1F91089580E0E8DFEE27F6
:047FF000FF270994CA
:027FFE00040479
:0400000300007E007B
:00000001FF
