:1000000015C10000C9C700009CC700006FC70000F1
:1000100042C7000015C70000E8C60000BBC60000CC
:100020008EC6000033C1000031C100002FC10000A6
:100030002DC100002BC1000029C1000027C1000014
:1000400025C1000023C1000021C100001FC1000024
:100050001DC100001BC1000019C1000026C6000020
:1000600015C10000F9C50000CEC500000FC1000099
:100070000DC100000BC1000009C1000007C1000054
:1000800005C1000003C1000001C10000FFC0000065
:10009000FDC00000FBC00000F9C00000F7C0000078
:1000A000F5C00000F3C00000F1C00000EFC0000088
:1000B000EDC00000EBC00000E9C00000E7C0000098
:1000C000E5C00000E3C00000E1C00000DFC00000A8
:1000D000DDC00000DBC000006DC5000042C50000AF
:1000E000D5C0000040034303320336033C037A03C8
:1000F00047034B035103550359035F03630367032E
:100100007A036D03710375030000220025002800A7
:100110002B002E003100340002010000050108010F
:100120000B0100002100240027002A002D003000D0
:10013000330001010000040107010A010000200052
:100140002300260029002C002F00320000010000AF
:10015000030106010901050505050705080808084A
:10016000020202020A0A080804040404010101014F
:10017000010101010303030303030303040707074A
:100180000C0C0C0C0C0C0C0C0202020206060606EF
:10019000060606060B0B0B0B0B0B0B0B01021020BC
:1001A00020080810204010204080020102010804AD
:1001B0000201010204081020408080402010080441
:1001C000020180040201804020100804020108049A
:1001D00002010102040810204080010204081020DE
:1001E000408000000A0B02090C0D0E0807030401F1
:1001F00000000000000000000000000000000000FF
:1002000000000000000000000000000000001211CB
:1002100010000000000000000000000000000000CE
:100220000000000000000000F707DB0911241FBEDA
:10023000CFEFD1E2DEBFCDBF00E00CBF23E0AAE8E4
:10024000B2E001C01D92A83DB207E1F712E0A0E0C4
:10025000B2E0E2E9F8E100E00BBF02C007900D92C6
:10026000AA38B107D9F711E0C5E1D1E000E006C036
:1002700021970109802FFE010E94020AC431D10793
:1002800080E00807A9F713D70C94380CB9CEFC010D
:10029000A089B18982E08C93A485B5851C92A6853E
:1002A000B7858FEC8C93108EA489B58986E08C93EA
:1002B000A289B3898C9180618C93A289B3898C9136
:1002C00088608C93A289B3898C9180688C93028812
:1002D000F389E02D80818F7D8083089590E0FC017B
:1002E000E456FE4F2491FC01EA5AFE4F8491882384
:1002F00099F090E0880F991FFC01EE5DFE4FA591EB
:10030000B491FC01E85FFE4F859194918FB7F8940A
:10031000EC91E22BEC938FBF089508952FB7F894DA
:100320008091900290919102A0919202B0919302DB
:100330002FBF80939C0290939D02A0939E02B09346
:100340009F02E0919402F09195020284F385E02DE2
:1003500084E992E0199597FF26C02FB7F894809111
:10036000900290919102A0919202B09193022FBFBE
:1003700040919C0250919D0260919E0270919F025B
:10038000841B950BA60BB70B4091980250919902D4
:1003900060919A0270919B0284179507A607B70790
:1003A00080F28FEF9FEF0895CF92DF92EF92FF924E
:1003B0000F931F93CF93DF936C017A018B01C0E001
:1003C000D0E0CE15DF0589F0D8016D918D01D60101
:1003D000ED91FC910190F081E02DC6011995892BDA
:1003E00011F47E0102C02196ECCFC701DF91CF91BD
:1003F0001F910F91FF90EF90DF90CF900895FC0137
:10040000A089B1898C91A689B78982FD0FC09C9182
:10041000818D8F5F8F73228D821749F0218DDF01CF
:10042000A20FB11D5D969C93818F08958C910895C4
:10043000089580E090E00895FC01538D448D252FB0
:1004400030E0842F90E0821B930B541710F0CF966E
:10045000089501970895FC01918D828D981761F0A0
:10046000828DDF01A80FB11D5D968C91928D9F5FEB
:100470009F73928F90E008958FEF9FEF0895FC0196
:10048000918D828D981731F0828DE80FF11D858D49
:1004900090E008958FEF9FEF0895FC01918D228DDC
:1004A000892F90E0805C9F4F821B91098F73992761
:1004B000089584E992E0F1DF21E0892B09F420E03E
:1004C000822F089581E393E0E8DF21E0892B09F48E
:1004D00020E0822F0895FC01848DDF01A80FB11D5B
:1004E000A35ABF4F2C91848D90E001968F7399276A
:1004F000848FA689B7892C93A089B1898C91806457
:100500008C93938D848D981306C00288F389E02D17
:1005100080818F7D80830895EF92FF920F931F93C8
:10052000CF93DF93EC0181E0888F9B8D8C8D9813A6
:1005300005C0E889F989808185FD23C0F62E0B8DE1
:1005400010E00F5F1F4F0F731127E02E8C8DE81204
:100550000BC00FB607FCFACFE889F989808185FFC7
:10056000F5CFCE01B8DFF2CF8B8DFE01E80FF11D84
:10057000E35AFF4FF0820B8FEA89FB89808180620A
:1005800007C0EE89FF896083E889F98980818064EA
:10059000808381E090E0DF91CF911F910F91FF90D8
:1005A000EF900895CF93DF93EC01888D8823C1F0FD
:1005B000EA89FB89808185FD05C0A889B9898C916C
:1005C00086FD0EC00FB607FCF5CF808185FFF2CF08
:1005D000A889B9898C9185FFEDCFCE017CDFE8CF6A
:1005E000DF91CF91089580E090E0892B19F06ADFC8
:1005F000811120C080E090E0892B41F080E090E004
:10060000892B21F00E940000811117C080E090E04A
:10061000892B41F080E090E0892B21F00E940000BE
:1006200081110EC080E090E0892B79F042DF8111CA
:100630000AC008950E940000DDCF0E940000E6CFAE
:100640000E940000EFCF0C940000089590E0FC01A0
:100650003197E231F10508F04DC08827EE58FF4F81
:100660008F4FD0C6809180008F7703C0809180002B
:100670008F7D80938000089580918000877FF9CFDF
:1006800084B58F7702C084B58F7D84BD0895809135
:10069000B0008F7703C08091B0008F7D8093B00051
:1006A0000895809190008F7707C0809190008F7D92
:1006B00003C080919000877F80939000089580917F
:1006C000A0008F7707C08091A0008F7D03C080912C
:1006D000A000877F8093A0000895809120018F77EC
:1006E00007C0809120018F7D03C080912001877F0A
:1006F000809320010895CF93DF93E5EEF1E084919C
:10070000EFE9F1E0D491E9E5F1E0C491CC2389F07F
:1007100081119CDFEC2FF0E0EE0FFF1FE45CFE4F39
:10072000A591B491EC91ED2381E090E021F480E07B
:1007300002C080E090E0DF91CF910895DCDF21E0FE
:10074000892B09F420E02093130208951F93CF937F
:10075000DF93282F30E0F901EE51FE4F8491F9012B
:10076000E456FE4FD491F901EA5AFE4FC491CC23CE
:10077000C1F0162F81116ADFEC2FF0E0EE0FFF1FA2
:10078000E85FFE4FA591B4918FB7F894111105C0A1
:100790009C91ED2FE095E92302C0EC91ED2BEC93B9
:1007A0008FBFDF91CF911F9108953FB7F89480914B
:1007B0008B0290918C02A0918D02B0918E0226B591
:1007C000A89B05C02F3F19F00196A11DB11D3FBF89
:1007D000BA2FA92F982F8827820F911DA11DB11D17
:1007E000BC01CD0142E0660F771F881F991F4A9513
:1007F000D1F708958F929F92AF92BF92CF92DF92DE
:10080000EF92FF926B017C01D0DF4B015C01C114C0
:10081000D104E104F104E9F0C8DFDC01CB0188195F
:100820009909AA09BB09883E9340A105B10578F34F
:1008300021E0C21AD108E108F10888EE880E83E0B1
:10084000981EA11CB11CC114D104E104F10421F7CC
:10085000DECFFF90EF90DF90CF90BF90AF909F9052
:100860008F90089508956115710579F0FB0101904D
:100870000020E9F73197AF01461B570BDC01ED91E2
:10088000FC910280F381E02D199480E090E00895BE
:10089000CF93DF93EEECF3E0448155816081718169
:1008A00081E393E081DDEC016CE272E081E393E0AF
:1008B000DADF8C0F9D1FDF91CF9108958F929F9269
:1008C000AF92BF920F931F93CF93DF93CDB7DEB755
:1008D000A1970FB6F894DEBF0FBECDBF19A242306C
:1008E00008F44AE08E010F5D1F4F842E912CA12C3D
:1008F000B12CA501940164D5E62FB901CA010150BC
:100900001109EA3014F4E05D01C0E95CD801EC9310
:10091000232B242B252B69F7B80181E393E0A3DF78
:10092000A1960FB6F894DEBF0FBECDBFDF91CF9179
:100930001F910F91BF90AF909F908F900895CF928D
:10094000DF92EF92FF92CF93DF936B017C01E091F6
:100950003103F09132030190F081E02D6DE281E3EB
:1009600093E01995EC0166277727CB016C197D0977
:100970008E099F094AE0A2DF8C0F9D1FDF91CF9166
:10098000FF90EF90DF90CF900895FC018091D2030B
:100990009091D303892B21F421E0309749F412C0C0
:1009A0008091CE039091CF03309731F421E0FC0188
:1009B0008081882339F005C0BF014AD721E0892B07
:1009C00009F020E0822F0895CF93DF93EC0180910E
:1009D000CE039091CF030097B9F0688179816115BA
:1009E000710589F04091D0035091D1032C813D8154
:1009F0004217530740F035D78C819D819093D303E4
:100A00008093D20317C09BD5888199819093CF039F
:100A10008093CE038A819B819093D1038093D003EE
:100A20008C819D819093D3038093D2031982188285
:100A30001B821A821D821C82DF91CF910895FBD602
:100A40000F931F93CF93DF93EC01888199810097D7
:100A500029F02A813B812617370780F48B016F5FCD
:100A60007F4F05D6009761F0998388831B830A83A3
:100A70002C813D81232B11F4FC01108281E001C007
:100A800080E0DF91CF911F910F910895EF92FF9237
:100A90000F931F93CF93DF93EC017B018A01BA017F
:100AA000CFDF2881398181110CC02115310511F06A
:100AB000C90145D5198218821D821C821B821A82A7
:100AC00005C01D830C83B701C901CBD6CE01DF91D0
:100AD000CF911F910F91FF90EF900895EF92FF92A9
:100AE0000F931F93CF93DF931F921F92CDB7DEB763
:100AF0008C01FC01118210821382128215821482F1
:100B000040E050E06EE272E0C1DF08DC97FD1FC0FC
:100B10008C379105E1F089831A82F801E480F58031
:100B2000FFEFEF1AFF0AB701C8018ADF882369F3D4
:100B3000F8012081318184819581BE016F5F7F4FF3
:100B4000820F931F8ED6F801F582E482DECFC801B2
:100B50000F900F90DF91CF911F910F91FF90EF9029
:100B600008951F920F920FB60F9211240BB60F9299
:100B70002F933F934F935F936F937F938F939F93A5
:100B8000AF93BF93EF93FF9384E992E0A4DCFF91CE
:100B9000EF91BF91AF919F918F917F916F915F91F5
:100BA0004F913F912F910F900BBE0F900FBE0F9062
:100BB0001F9018951F920F920FB60F9211240BB62B
:100BC0000F922F933F934F935F936F937F938F93E6
:100BD0009F93AF93BF93EF93FF9384E992E00FDC71
:100BE000FF91EF91BF91AF919F918F917F916F9105
:100BF0005F914F913F912F910F900BBE0F900FBEC1
:100C00000F901F9018951F920F920FB60F921124FC
:100C10000BB60F922F933F934F935F936F937F93F6
:100C20008F939F93AF93BF93EF93FF9381E393E0F1
:100C300052DCFF91EF91BF91AF919F918F917F9186
:100C40006F915F914F913F912F910F900BBE0F903D
:100C50000FBE0F901F9018951F920F920FB60F9214
:100C600011240BB60F922F933F934F935F936F9383
:100C70007F938F939F93AF93BF93EF93FF9381E302
:100C800093E0BDDBFF91EF91BF91AF919F918F9169
:100C90007F916F915F914F913F912F910F900BBE7C
:100CA0000F900FBE0F901F9018951F920F920FB6C6
:100CB0000F9211242F933F938F939F93AF93BF93E2
:100CC0008091900290919102A0919202B091930232
:100CD00030918A0223E0230F2D3720F40196A11DC5
:100CE000B11D05C026E8230F0296A11DB11D20935A
:100CF0008A028093900290939102A0939202B09303
:100D0000930280918B0290918C02A0918D02B09100
:100D10008E020196A11DB11D80938B0290938C02CF
:100D2000A0938D02B0938E02BF91AF919F918F914E
:100D30003F912F910F900FBE0F901F9018951F920B
:100D40000F920FB60F9211240BB60F922F933F9371
:100D50004F935F936F937F938F939F93AF93BF93C3
:100D6000EF93FF93E0910F02F09110021995FF911C
:100D7000EF91BF91AF919F918F917F916F915F9113
:100D80004F913F912F910F900BBE0F900FBE0F9080
:100D90001F9018951F920F920FB60F9211240BB649
:100DA0000F922F933F934F935F936F937F938F9304
:100DB0009F93AF93BF93EF93FF93E0910D02F09158
:100DC0000E021995FF91EF91BF91AF919F918F9175
:100DD0007F916F915F914F913F912F910F900BBE3B
:100DE0000F900FBE0F901F9018951F920F920FB685
:100DF0000F9211240BB60F922F933F934F935F9353
:100E00006F937F938F939F93AF93BF93EF93FF93D2
:100E1000E0910302F09104021995FF91EF91BF91C7
:100E2000AF919F918F917F916F915F914F913F9182
:100E30002F910F900BBE0F900FBE0F901F90189523
:100E40001F920F920FB60F9211240BB60F922F9391
:100E50003F934F935F936F937F938F939F93AF9342
:100E6000BF93EF93FF93E0910102F0910202199575
:100E7000FF91EF91BF91AF919F918F917F916F9172
:100E80005F914F913F912F910F900BBE0F900FBE2E
:100E90000F901F9018951F920F920FB60F9211246A
:100EA0000BB60F922F933F934F935F936F937F9364
:100EB0008F939F93AF93BF93EF93FF93E0910B02B8
:100EC000F0910C021995FF91EF91BF91AF919F9115
:100ED0008F917F916F915F914F913F912F910F90E3
:100EE0000BBE0F900FBE0F901F9018951F920F9280
:100EF0000FB60F9211240BB60F922F933F934F937F
:100F00005F936F937F938F939F93AF93BF93EF9371
:100F1000FF93E0910902F0910A021995FF91EF9178
:100F2000BF91AF919F918F917F916F915F914F9101
:100F30003F912F910F900BBE0F900FBE0F901F90FF
:100F400018951F920F920FB60F9211240BB60F92A5
:100F50002F933F934F935F936F937F938F939F93C1
:100F6000AF93BF93EF93FF93E0910702F0910802D4
:100F70001995FF91EF91BF91AF919F918F917F91C3
:100F80006F915F914F913F912F910F900BBE0F90FA
:100F90000FBE0F901F9018951F920F920FB60F92D1
:100FA00011240BB60F922F933F934F935F936F9340
:100FB0007F938F939F93AF93BF93EF93FF93E091B2
:100FC0000502F09106021995FF91EF91BF91AF9143
:100FD0009F918F917F916F915F914F913F912F9151
:100FE0000F900BBE0F900FBE0F901F901895E4E965
:100FF000F2E01382128248EE53E060E070E0448336
:101000005583668377838EE192E09183808325E325
:1010100031E03587248724E331E03787268720E3D2
:1010200031E0318B208B21E331E0338B228B22E3C3
:1010300031E0358B248B26E331E0378B268B118E04
:10104000128E138E148EE1E3F3E013821282448336
:101050005583668377839183808385EC90E09587C1
:10106000848784EC90E09787868780EC90E0918B72
:10107000808B81EC90E0938B828B82EC90E0958B5F
:10108000848B86EC90E0978B868B118E128E138E5C
:10109000148EEEECF3E0118210821382128215821C
:1010A000148240E050E06EE272E0CF01EFCCCF93CB
:1010B000DF9300D000D0CDB7DEB7789484B58260DE
:1010C00084BD84B5816084BD85B5826085BD85B5EC
:1010D000816085BD80916E00816080936E0010926A
:1010E00081008091810082608093810080918100E5
:1010F0008160809381008091800081608093800076
:101100008091B10084608093B1008091B0008160D3
:101110008093B000809191008260809391008091D3
:101120009100816080939100809190008160809314
:1011300090008091A10082608093A1008091A10025
:1011400081608093A1008091A00081608093A000C5
:101150008091210182608093210180912101816031
:1011600080932101809120018160809320018091F2
:101170007A00846080937A0080917A008260809304
:101180007A0080917A00816080937A0080917A0061
:10119000806880937A001092C10081E393E077D851
:1011A00084E992E074D888E099D884E097D861E027
:1011B00084E0CCDAA0DA21E0892B09F420E0209346
:1011C00013028EE993E090930402809303028091CE
:1011D0006A00837F846080936A00ED9AFF24F39411
:1011E0009091130280911202981781F0809113025E
:1011F000882319F06FE272E002C064E372E084E9D0
:1012000092E031DB809113028093120284E992E034
:1012100044D9892BC1F0CE01019660DCCE01019644
:10122000D3DB89819A818BD189E392E0AEDB88237D
:1012300019F0F0928F0206C08DE392E0A6DB8111D7
:1012400010928F0225DB80911302811108C08091DA
:101250008F02811104C08091110281112CC08091F4
:101260001302811104C080918F02882329F080919C
:101270001102882309F499C061E472E081E393E0EC
:10128000F2DA6091130270E080E090E04AE016DB51
:101290006DE472E081E393E0E6DA60918F0270E042
:1012A00080E090E04AE00ADB6CE272E081E393E0E8
:1012B000DADA99D995CF6BE572E081E393E0D3DA7E
:1012C0006CE272E081E393E0CEDA01E010E084E9C1
:1012D00092E0E3D8892BC1F0CE010196FFDBCE016D
:1012E000019672DB89819A812AD189E392E04DDBF4
:1012F000882319F0F0928F0206C08DE392E045DB5F
:10130000811110928F02C4DA80911302811104C0FE
:1013100080918F02882359F062E772E081E393E0C5
:10132000A2DA6CE272E081E393E09DDAA5CF0A30A5
:101330001105C1F485E0C82ED12C61E088E006DA01
:1013400064E670E080E090E055DA60E088E0FED985
:1013500068EC70E080E090E04DDA81E0C81AD108D6
:1013600061F717C00F301105A1F461E088E0EED9F4
:1013700068EE73E080E090E03DDA60E088E0E6D976
:1013800060E070E0CB0136DA60E084E0DFD91092F3
:10139000110268EE73E080E090E02CDA0F5F1F4FDF
:1013A0000031110509F093CF67CFF092110261E08F
:1013B00084E0CCD961CF8091CE039091CF03BFC0A0
:1013C000A1E21A2EAA1BBB1BFD010DC0AA1FBB1F49
:1013D000EE1FFF1FA217B307E407F50720F0A21BBB
:1013E000B30BE40BF50B661F771F881F991F1A9428
:1013F00069F760957095809590959B01AC01BD0152
:10140000CF010895EE0FFF1F881F8BBF0790F69145
:10141000E02D1994CF93DF938230910510F482E090
:1014200090E0E091D603F091D70320E030E0C0E0F7
:10143000D0E0309711F14081518148175907C0F031
:101440004817590761F482819381209719F09B8393
:101450008A832BC09093D7038093D60326C021158F
:10146000310519F04217530718F49A01BE01DF0144
:10147000EF010280F381E02DDCCF2115310509F168
:10148000281B390B2430310590F412968D919C91D4
:1014900013976115710521F0FB019383828304C0CA
:1014A0009093D7038093D603FD01329644C0FD018B
:1014B000E20FF31F81939193225031092D933C93B6
:1014C0003AC02091D4033091D503232B41F42091CD
:1014D0001602309117023093D5032093D403209144
:1014E0001402309115022115310541F42DB73EB794
:1014F0004091180250911902241B350BE091D4033E
:10150000F091D503E217F307A0F42E1B3F0B281729
:10151000390778F0AC014E5F5F4F2417350748F06C
:101520004E0F5F1F5093D5034093D4038193919343
:1015300002C0E0E0F0E0CF01DF91CF9108950F937A
:101540001F93CF93DF93009709F48CC0FC0132976F
:10155000138212820091D6031091D7030115110551
:1015600081F420813181820F931F2091D403309127
:10157000D5032817390779F5F093D503E093D40301
:1015800071C0D80140E050E0AE17BF0750F412968A
:101590002D913C911397AD012115310509F1D90128
:1015A000F3CF9D01DA013383228360817181860F3D
:1015B000971F8217930769F4EC0128813981260F60
:1015C000371F2E5F3F4F318320838A819B81938316
:1015D0008283452B29F4F093D703E093D60342C0CE
:1015E0001396FC93EE931297ED01499159919E0148
:1015F000240F351FE217F30771F480819181840F66
:10160000951F029611969C938E93828193811396D7
:101610009C938E931297E0E0F0E0D80112968D91A2
:101620009C911397009719F0F8018C01F6CF8D91DA
:101630009C9198012E5F3F4F820F931F2091D403FE
:101640003091D5032817390769F4309729F410929F
:10165000D7031092D60302C0138212821093D503CF
:101660000093D403DF91CF911F910F9108956F9252
:101670007F928F929F92AF92BF92CF92DF92EF9222
:10168000FF920F931F93CF93DF93EC01009781F4A8
:10169000CB01DF91CF911F910F91FF90EF90DF90E1
:1016A000CF90BF90AF909F908F907F906F90B2CE71
:1016B000FC01E60FF71F9C0122503109E217F307E6
:1016C00008F4A8C0D9010D911C91119706171707AE
:1016D000A8F00530110508F49BC0C80104978617CF
:1016E000970708F495C002501109061B170B0193C8
:1016F00011936D937C93CF0122DF8AC05B01A01A06
:10170000B10A4C01800E911EA091D603B091D7036F
:1017100040E050E0E12CF12C109709F44AC0A815E4
:10172000B905D1F56D907C901197630182E0C80EE8
:10173000D11CCA14DB0480F1A3014A195B096A01B8
:1017400082E0C80ED11C1296BC9012971396AC91F1
:10175000B5E0CB16D10440F0B282A383518340831D
:10176000D9016D937C930AC00E5F1F4FC301800F98
:10177000911FF90191838083EB2DFA2FE114F1047D
:1017800031F0D7011396FC93EE93129741C0F0937A
:10179000D703E093D6033CC08D919C9111974817D5
:1017A000590708F4AC017D0112960D90BC91A02D53
:1017B000B3CF8091D4039091D50388159905E1F4B6
:1017C00046175707C8F480911402909115020097AC
:1017D00041F48DB79EB74091180250911902841BB5
:1017E000950BE817F907B0F4F093D503E093D40311
:1017F000F901718360830CC0CB010CDE7C01009782
:1018000049F0A801BE011BD0CE0199DEC70104C07A
:10181000CE0102C080E090E0DF91CF911F910F9147
:10182000FF90EF90DF90CF90BF90AF909F908F9000
:101830007F906F90089581E090E0F89419C0FB01CB
:10184000DC0102C001900D9241505040D8F708953C
:10185000FB01DC018D91019080190110D9F3990BE6
:101860000895FB01DC0101900D920020E1F708953D
:1018700011E0C5E1D1E000E005C0802FFE01C2DD2E
:101880002196011DC631D10780E00807B1F7F89411
:02189000FFCF88
:101892000132043204320432043204320432043299
:1018A200040101010000D8038000000000008C0246
:1018B200D4011C02D2024D022B023F020D0A00503B
:1018C2004D317C00504D307C005055310050553028
:1018D20000707265734D454741203D200020202055
:1018E20070726573554E4F203D20004465736C69DC
:1018F20067616D656E746F20696E69636961646F9B
:1019020021006465736C6967616D656E746F206335
:0A191200616E63656C61646F000094
:00000001FF
