:1000000015C10000B6C7000089C700005CC700002A
:100010002FC7000002C70000D5C60000A8C6000018
:100020007BC6000033C1000031C100002FC10000B9
:100030002DC100002BC1000029C1000027C1000014
:1000400025C1000023C1000021C100001FC1000024
:100050001DC100001BC1000019C1000013C6000033
:1000600015C10000E6C50000BBC500000FC10000BF
:100070000DC100000BC1000009C1000007C1000054
:1000800005C1000003C1000001C10000FFC0000065
:10009000FDC00000FBC00000F9C00000F7C0000078
:1000A000F5C00000F3C00000F1C00000EFC0000088
:1000B000EDC00000EBC00000E9C00000E7C0000098
:1000C000E5C00000E3C00000E1C00000DFC00000A8
:1000D000DDC00000DBC000005AC500002FC50000D5
:1000E000D5C00000FB02FE02ED02F102F70235036B
:1000F000020306030C03100314031A031E03220356
:10010000350328032C0330030000220025002800BB
:100110002B002E003100340002010000050108010F
:100120000B0100002100240027002A002D003000D0
:10013000330001010000040107010A010000200052
:100140002300260029002C002F00320000010000AF
:10015000030106010901050505050705080808084A
:10016000020202020A0A080804040404010101014F
:10017000010101010303030303030303040707074A
:100180000C0C0C0C0C0C0C0C0202020206060606EF
:10019000060606060B0B0B0B0B0B0B0B01021020BC
:1001A00020080810204010204080020102010804AD
:1001B0000201010204081020408080402010080441
:1001C000020180040201804020100804020108049A
:1001D00002010102040810204080010204081020DE
:1001E000408000000A0B02090C0D0E0807030401F1
:1001F00000000000000000000000000000000000FF
:1002000000000000000000000000000000001211CB
:1002100010000000000000000000000000000000CE
:100220000000000000000000E407D40A11241FBEF3
:10023000CFEFD1E2DEBFCDBF00E00CBF24E0A0EBEA
:10024000B2E001C01D92A23CB207E1F712E0A0E0CB
:10025000B2E0E4E8FAE100E00BBF02C007900D92C3
:10026000A03BB107D9F711E0C5E1D1E000E006C03D
:1002700021970109802FFE010E94FB0AC431D1079A
:1002800080E00807A9F72BD70C94310DB9CEFC01FB
:10029000A089B18982E08C93A485B5851C92A6853E
:1002A000B7858FEC8C93108EA489B58986E08C93EA
:1002B000A289B3898C9180618C93A289B3898C9136
:1002C00088608C93A289B3898C9180688C93028812
:1002D000F389E02D80818F7D8083089590E0FC017B
:1002E000E456FE4F2491FC01EA5AFE4F8491882384
:1002F00099F090E0880F991FFC01EE5DFE4FA591EB
:10030000B491FC01E85FFE4F859194918FB7F8940A
:10031000EC91E22BEC938FBF08950895CF92DF927A
:10032000EF92FF920F931F93CF93DF936C017A01AB
:100330008B01C0E0D0E0CE15DF0589F0D8016D91CA
:100340008D01D601ED91FC910190F081E02DC60167
:100350001995892B11F47E0102C02196ECCFC701BB
:10036000DF91CF911F910F91FF90EF90DF90CF9091
:100370000895FC01A089B1898C91A689B78982FD75
:100380000FC09C91818D8F5F8F73228D821749F0F2
:10039000218DDF01A20FB11D5D969C93818F089581
:1003A0008C910895089580E090E00895FC01538DAC
:1003B000448D252F30E0842F90E0821B930B54173F
:1003C00010F0CF96089501970895FC01918D828DCC
:1003D000981761F0828DDF01A80FB11D5D968C9199
:1003E000928D9F5F9F73928F90E008958FEF9FEFA4
:1003F0000895FC01918D828D981731F0828DE80F60
:10040000F11D858D90E008958FEF9FEF0895FC0119
:10041000918D228D892F90E0805C9F4F821B9109E6
:100420008F739927089580EC92E0F1DF21E0892B0A
:1004300009F420E0822F08958DE593E0E8DF21E0C4
:10044000892B09F420E0822F0895FC01848DDF01BF
:10045000A80FB11DA35ABF4F2C91848D90E0019637
:100460008F739927848FA689B7892C93A089B18926
:100470008C9180648C93938D848D981306C0028830
:10048000F389E02D80818F7D80830895EF92FF9224
:100490000F931F93CF93DF93EC0181E0888F9B8DA7
:1004A0008C8D981305C0E889F989808185FD23C06A
:1004B000F62E0B8D10E00F5F1F4F0F731127E02EEC
:1004C0008C8DE8120BC00FB607FCFACFE889F989CA
:1004D000808185FFF5CFCE01B8DFF2CF8B8DFE0195
:1004E000E80FF11DE35AFF4FF0820B8FEA89FB8979
:1004F0008081806207C0EE89FF896083E889F9897D
:1005000080818064808381E090E0DF91CF911F91B2
:100510000F91FF90EF900895CF93DF93EC01888DBA
:100520008823C1F0EA89FB89808185FD05C0A889FF
:10053000B9898C9186FD0EC00FB607FCF5CF80817E
:1005400085FFF2CFA889B9898C9185FFEDCFCE01C7
:100550007CDFE8CFDF91CF91089580E090E0892B98
:1005600019F06ADF811120C080E090E0892B41F012
:1005700080E090E0892B21F00E940000811117C0DB
:1005800080E090E0892B41F080E090E0892B21F021
:100590000E94000081110EC080E090E0892B79F06C
:1005A00042DF81110AC008950E940000DDCF0E9441
:1005B0000000E6CF0E940000EFCF0C9400000895E9
:1005C00090E0FC013197E231F10508F04EC0882738
:1005D000EE58FF4F8F4F0C94FB0A809180008F776D
:1005E00003C0809180008F7D80938000089580916A
:1005F0008000877FF9CF84B58F7702C084B58F7D67
:1006000084BD08958091B0008F7703C08091B000C1
:100610008F7D8093B0000895809190008F7707C000
:10062000809190008F7D03C080919000877F8093A0
:10063000900008958091A0008F7707C08091A0005E
:100640008F7D03C08091A000877F8093A0000895D4
:10065000809120018F7707C0809120018F7D03C09A
:1006600080912001877F809320010895CF93DF93AD
:10067000E5EEF1E08491EFE9F1E0D491E9E5F1E014
:10068000C491CC2389F081119BDFEC2FF0E0EE0FB9
:10069000FF1FE45CFE4FA591B491EC91ED2381E046
:1006A00090E021F480E002C080E090E0DF91CF9103
:1006B0000895DCDF21E0892B09F420E02093120269
:1006C00008951F93CF93DF93282F30E0F901EE5167
:1006D000FE4F8491F901E456FE4FD491F901EA5A94
:1006E000FE4FC491CC23C1F0162F811169DFEC2F8E
:1006F000F0E0EE0FFF1FE85FFE4FA591B4918FB7BA
:10070000F894111105C09C91ED2FE095E92302C0EA
:10071000EC91ED2BEC938FBFDF91CF911F9108955A
:100720003FB7F8948091B5029091B602A091B702BC
:10073000B091B80226B5A89B05C02F3F19F00196CD
:10074000A11DB11D3FBFBA2FA92F982F8827820F57
:10075000911DA11DB11DBC01CD0142E0660F771FA7
:10076000881F991F4A95D1F708958F929F92AF9253
:10077000BF92CF92DF92EF92FF926B017C01D0DFAC
:100780004B015C01C114D104E104F104E9F0C8DFBC
:10079000DC01CB0188199909AA09BB09883E93405D
:1007A000A105B10578F321E0C21AD108E108F108EA
:1007B00088EE880E83E0981EA11CB11CC114D104E0
:1007C000E104F10421F7DECFFF90EF90DF90CF90AE
:1007D000BF90AF909F908F9008952FB7F89460913D
:1007E000B1027091B2028091B3029091B4022FBF16
:1007F00008950F931F93F1DF6093C8027093C902AD
:100800008093CA029093CB02E091C002F091C102A2
:100810000284F385E02D80EC92E0199597FF1EC0CD
:10082000DCDF0091C8021091C9022091CA02309108
:10083000CB02DC01CB01801B910BA20BB30B00910F
:10084000C4021091C5022091C6023091C7028017E0
:100850009107A207B307C0F28FEF9FEF1F910F918F
:10086000089508950E94140D0F931F93CF93DF9363
:10087000EC0188819981009729F02A813B81261714
:10088000370780F48B016F5F7F4FEAD7009761F0E5
:10089000998388831B830A832C813D81232B11F448
:1008A000FC01108281E001C080E0DF91CF911F91B7
:1008B0000F910895EF92FF920F931F93CF93DF93C1
:1008C000EC01198218821B821A821D821C8261151A
:1008D000710539F18B01FB0101900020E9F7319797
:1008E0007F01E61AF70AB701BFDF2881398181113C
:1008F0000CC02115310511F0C9011AD719821882CF
:100900001D821C821B821A820CC0FD82EC82B801FF
:10091000C901DF91CF911F910F91FF90EF900C943F
:100920002A0DDF91CF911F910F91FF90EF900895C5
:100930006115710579F0FB0101900020E9F731970D
:10094000AF01461B570BDC01ED91FC910280F38156
:10095000E02D199480E090E00895CF93DF93BC01DF
:100960008DE593E0E5DFEC016BE272E08DE593E06D
:10097000DFDF8C0F9D1FDF91CF910895EF92FF92E3
:100980000F931F93CF93DF938EE292E0E6DFC5E0F3
:10099000D0E061E088E095DE64E670E080E090E021
:1009A000E4DE60E088E08DDE68EC70E080E090E0FE
:1009B000DCDE219771F7E0E0F4E08081811127C04F
:1009C00083E18C9F80018D9F100D112400501C4FDE
:1009D00081E0F801808388E893E1A0E0B0E08183C2
:1009E0009283A383B483EE24E394F12CF682E58210
:1009F0008BE195E092878187F0DEF8016387748749
:100A000085879687108A1786F28AE18A06C0219622
:100A10007396CA30D10589F6CFEF0C2E000CDD0B92
:100A2000D093BA02C093B902DF91CF911F910F9179
:100A3000FF90EF9008958BE492E08FDF61E088E013
:100A400040DE68EE73E080E090E08FDE60E088E0FA
:100A500038DE60E070E0CB0188DE60E084E031DE0B
:100A600082E090E09093BE028093BD0208958F9241
:100A70009F92AF92BF920F931F93CF93DF93CDB707
:100A8000DEB7A1970FB6F894DEBF0FBECDBF19A297
:100A9000423008F44AE08E010F5D1F4F842E912CE6
:100AA000A12CB12CA501940184D5E62FB901CA016E
:100AB00001501109EA3014F4E05D01C0E95CD8018D
:100AC000EC93232B242B252B69F7B8018DE593E0BC
:100AD0002FDFA1960FB6F894DEBF0FBECDBFDF911A
:100AE000CF911F910F91BF90AF909F908F900895DD
:100AF000CF92DF92EF92FF92CF93DF936B017C0155
:100B0000E0915D03F0915E030190F081E02D6DE2D4
:100B10008DE593E01995EC0166277727CB016C19D9
:100B20007D098E099F094AE0A2DF8C0F9D1FDF918E
:100B3000CF91FF90EF90DF90CF9008951F920F928A
:100B40000FB60F9211240BB60F922F933F934F9332
:100B50005F936F937F938F939F93AF93BF93EF9325
:100B6000FF9380EC92E071DCFF91EF91BF91AF9128
:100B70009F918F917F916F915F914F913F912F91B5
:100B80000F900BBE0F900FBE0F901F9018951F92E5
:100B90000F920FB60F9211240BB60F922F933F9323
:100BA0004F935F936F937F938F939F93AF93BF9375
:100BB000EF93FF9380EC92E0DCDBFF91EF91BF912C
:100BC000AF919F918F917F916F915F914F913F91E5
:100BD0002F910F900BBE0F900FBE0F901F90189586
:100BE0001F920F920FB60F9211240BB60F922F93F4
:100BF0003F934F935F936F937F938F939F93AF93A5
:100C0000BF93EF93FF938DE593E01FDCFF91EF918E
:100C1000BF91AF919F918F917F916F915F914F9114
:100C20003F912F910F900BBE0F900FBE0F901F9012
:100C300018951F920F920FB60F9211240BB60F92B8
:100C40002F933F934F935F936F937F938F939F93D4
:100C5000AF93BF93EF93FF938DE593E08ADBFF9112
:100C6000EF91BF91AF919F918F917F916F915F9124
:100C70004F913F912F910F900BBE0F900FBE0F9091
:100C80001F9018951F920F920FB60F9211242F9359
:100C90003F938F939F93AF93BF938091B1029091B5
:100CA000B202A091B302B091B4023091B00223E03D
:100CB000230F2D3720F40196A11DB11D05C026E894
:100CC000230F0296A11DB11D2093B0028093B102A3
:100CD0009093B202A093B302B093B4028091B50294
:100CE0009091B602A091B702B091B8020196A11DF1
:100CF000B11D8093B5029093B602A093B702B09352
:100D0000B802BF91AF919F918F913F912F910F901A
:100D10000FBE0F901F9018951F920F920FB60F9253
:100D200011240BB60F922F933F934F935F936F93C2
:100D30007F938F939F93AF93BF93EF93FF93E09134
:100D40000F02F09110021995FF91EF91BF91AF91B1
:100D50009F918F917F916F915F914F913F912F91D3
:100D60000F900BBE0F900FBE0F901F9018951F9203
:100D70000F920FB60F9211240BB60F922F933F9341
:100D80004F935F936F937F938F939F93AF93BF9393
:100D9000EF93FF93E0910D02F0910E021995FF91F0
:100DA000EF91BF91AF919F918F917F916F915F91E3
:100DB0004F913F912F910F900BBE0F900FBE0F9050
:100DC0001F9018951F920F920FB60F9211240BB619
:100DD0000F922F933F934F935F936F937F938F93D4
:100DE0009F93AF93BF93EF93FF93E0910302F09132
:100DF00004021995FF91EF91BF91AF919F918F914F
:100E00007F916F915F914F913F912F910F900BBE0A
:100E10000F900FBE0F901F9018951F920F920FB654
:100E20000F9211240BB60F922F933F934F935F9322
:100E30006F937F938F939F93AF93BF93EF93FF93A2
:100E4000E0910102F09102021995FF91EF91BF919B
:100E5000AF919F918F917F916F915F914F913F9152
:100E60002F910F900BBE0F900FBE0F901F901895F3
:100E70001F920F920FB60F9211240BB60F922F9361
:100E80003F934F935F936F937F938F939F93AF9312
:100E9000BF93EF93FF93E0910B02F0910C02199531
:100EA000FF91EF91BF91AF919F918F917F916F9142
:100EB0005F914F913F912F910F900BBE0F900FBEFE
:100EC0000F901F9018951F920F920FB60F9211243A
:100ED0000BB60F922F933F934F935F936F937F9334
:100EE0008F939F93AF93BF93EF93FF93E09109028A
:100EF000F0910A021995FF91EF91BF91AF919F91E7
:100F00008F917F916F915F914F913F912F910F90B2
:100F10000BBE0F900FBE0F901F9018951F920F924F
:100F20000FB60F9211240BB60F922F933F934F934E
:100F30005F936F937F938F939F93AF93BF93EF9341
:100F4000FF93E0910702F09108021995FF91EF914C
:100F5000BF91AF919F918F917F916F915F914F91D1
:100F60003F912F910F900BBE0F900FBE0F901F90CF
:100F700018951F920F920FB60F9211240BB60F9275
:100F80002F933F934F935F936F937F938F939F9391
:100F9000AF93BF93EF93FF93E0910502F0910602A8
:100FA0001995FF91EF91BF91AF919F918F917F9193
:100FB0006F915F914F913F912F910F900BBE0F90CA
:100FC0000FBE0F901F9018951092C3021092C2028C
:100FD00048EE53E060E070E04093C4025093C502D5
:100FE0006093C6027093C7028DE192E09093C102B4
:100FF0008093C00225E331E03093CD022093CC02F0
:1010000024E331E03093CF022093CE0220E331E09D
:101010003093D1022093D00221E331E03093D30208
:101020002093D20222E331E03093D5022093D40200
:1010300026E331E03093D7022093D6021092D902F2
:101040001092DA021092DB021092DC02109260031E
:1010500010925F03409361035093620360936303B4
:101060007093640390935E0380935D0385EC90E03E
:1010700090936A038093690384EC90E090936C03EF
:1010800080936B0380EC90E090936E0380936D03EC
:1010900081EC90E09093700380936F0382EC90E07A
:1010A000909372038093710386EC90E090937403A5
:1010B0008093730310927603109277031092780353
:1010C00010927903E0E0F4E01082739684E0EE3B46
:1010D000F807D1F76DE272E08AEF93E0EBCBCF93A4
:1010E000DF93CDB7DEB728970FB6F894DEBF0FBEFB
:1010F000CDBF789484B5826084BD84B5816084BDA1
:1011000085B5826085BD85B5816085BD80916E00A5
:10111000816080936E0010928100809181008260D6
:101120008093810080918100816080938100809113
:1011300080008160809380008091B1008460809302
:10114000B1008091B00081608093B00080919100E7
:1011500082608093910080919100816080939100E2
:10116000809190008160809390008091A1008260C6
:101170008093A1008091A10081608093A100809163
:10118000A00081608093A000809121018260809303
:1011900021018091210181608093210180912001B2
:1011A00081608093200180917A00846080937A002E
:1011B00080917A00826080937A0080917A008160C9
:1011C00080937A0080917A00806880937A001092F0
:1011D000C1008DE593E05BD880EC92E058D888E0C0
:1011E0007DD884E07BD861E084E06BDA3FDA21E0EF
:1011F000892B09F420E02093120289E593E0909373
:1012000004028093030280916A00837F846080934C
:101210006A00ED9A2224239423E1322ECC24C39435
:10122000D12C4EEB842E44E0942E80E0A82E84E056
:10123000B82E98E0E92E94E0F92E8501D8018C9122
:10124000882309F44BC0C9DA2B013C01F8018385DE
:101250009485A585B685B301A201481B590B6A0B7D
:101260007B0B81819281A381B481481759076A075A
:101270007B0728F18081813019F0823059F015C048
:10128000D8010184F285E02D51968D919C91529761
:1012900019950BC061E0F7018081811160E0D701F1
:1012A0006C93F701319780810CDAF80143865486FC
:1012B00065867686878590890196908B8787D80189
:1012C00015968D919C91169797FD08C01F962D91AC
:1012D0003C915097281739070CF01C920D5E1F4F58
:1012E000B3E1EB0EF11CE4E00E3B1E0709F0A6CFC4
:1012F0009091120280911102981781F08091120250
:10130000882319F06DE672E002C062E772E080ECBB
:1013100092E00EDB809112028093110280EC92E049
:1013200076D8892B09F486C06DE272E0CE01019671
:10133000C1DA5FDA97FD1CC08C379105C9F08F8345
:1013400018860D811E810F5F1F4FB801CE010196D7
:101350008BDA882371F329813A818D819E81BE01C8
:10136000695F7F4F820F931F75D31E830D83E1CF7B
:101370008091FA039091FB030097B9F069817A811B
:101380006115710589F04091FC035091FD032D8199
:101390003E814217530740F05DD38D819E8190932B
:1013A000FF038093FE0317C0C3D189819A81909374
:1013B000FB038093FA038B819C819093FD038093C0
:1013C000FC038D819E819093FF038093FE031A821C
:1013D00019821C821B821E821D8289819A81A8D15A
:1013E0000091FE031091FF0301151105A9F0E09093
:1013F000FA03F090FB0367E772E0C70122D3892B61
:1014000019F42092BF0208C06BE772E0C70119D33C
:10141000892B11F41092BF026091FA037091FB03C3
:10142000A8018DE593E00E948E016BE272E08DE5EC
:1014300093E07EDA8091120281110AC08091BF028E
:10144000811106C08091BD029091BE02892B89F066
:1014500080911202811105C08091BF02882309F496
:101460008DC08091BD029091BE02019709F086C0A7
:101470004BC0D092BE02C092BD0262E772E080EC27
:1014800092E056DA00E010E0D5018C91811128C07D
:10149000309EC001319E900D1124FC01E050FC4FA4
:1014A0007F0121E0208380E197E2A0E0B0E081832A
:1014B0009283A383B483D682C582928681868DD996
:1014C000D7011B966D937D938D939C931E97509699
:1014D0001C921E921F975296DC92CE92519709C091
:1014E0000F5F1F4FB3E1AB0EB11C0A30110561F65F
:1014F0000FEF002E000C110B1093BC020093BB02E7
:101500008FE792E02ADA1AC01092BE021092BD0252
:101510002091BB022A3038F4332D2303F00111242B
:10152000E050FC4F10822091B9022A3038F4332D5C
:101530002303F0011124E050FC4F108266E972E0B1
:101540008DE593E0F5D96091120270E080E090E0C3
:101550004AE08DDA62EA72E08DE593E0E9D96091C4
:10156000BF0270E080E090E04AE081DA6BE272E076
:101570008DE593E0DDD90E94AD0257CE8091120235
:10158000811104C08091BF028823C1F28091BD0205
:101590009091BE02029791F61092BE021092BD0287
:1015A00061E084E08ED8CACF8091FA039091FB036A
:1015B000BFC0A1E21A2EAA1BBB1BFD010DC0AA1FB2
:1015C000BB1FEE1FFF1FA217B307E407F50720F0AC
:1015D000A21BB30BE40BF50B661F771F881F991F27
:1015E0001A9469F760957095809590959B01AC0170
:1015F000BD01CF010895EE0FFF1F881F8BBF07901D
:10160000F691E02D1994CF93DF938230910510F479
:1016100082E090E0E091C004F091C10420E030E06D
:10162000C0E0D0E0309711F140815181481759074F
:10163000C0F04817590761F482819381209719F00F
:101640009B838A832BC09093C1048093C00426C0DF
:101650002115310519F04217530718F49A01BE01FC
:10166000DF01EF010280F381E02DDCCF2115310590
:1016700009F1281B390B2430310590F412968D9115
:101680009C9113976115710521F0FB01938382836F
:1016900004C09093C1048093C004FD01329644C0FD
:1016A000FD01E20FF31F81939193225031092D9395
:1016B0003C933AC02091BE043091BF04232B41F4E7
:1016C00020911502309116023093BF042093BE047E
:1016D00020911302309114022115310541F42DB7E8
:1016E0003EB74091170250911802241B350BE09130
:1016F000BE04F091BF04E217F307A0F42E1B3F0BCA
:101700002817390778F0AC014E5F5F4F2417350773
:1017100048F04E0F5F1F5093BF044093BE04819367
:10172000919302C0E0E0F0E0CF01DF91CF91089506
:101730000F931F93CF93DF93009709F48CC0FC01A4
:101740003297138212820091C0041091C1040115D6
:10175000110581F420813181820F931F2091BE04F5
:101760003091BF042817390779F5F093BF04E0934F
:10177000BE0471C0D80140E050E0AE17BF0750F47E
:1017800012962D913C911397AD012115310509F168
:10179000D901F3CF9D01DA01338322836081718106
:1017A000860F971F8217930769F4EC01288139810E
:1017B000260F371F2E5F3F4F318320838A819B8105
:1017C00093838283452B29F4F093C104E093C004F2
:1017D00042C01396FC93EE931297ED0149915991F3
:1017E0009E01240F351FE217F30771F48081918168
:1017F000840F951F029611969C938E9382819381FC
:1018000013969C938E931297E0E0F0E0D801129625
:101810008D919C911397009719F0F8018C01F6CFE8
:101820008D919C9198012E5F3F4F820F931F2091C5
:10183000BE043091BF042817390769F4309729F4A2
:101840001092C1041092C00402C01382128210933D
:10185000BF040093BE04DF91CF911F910F910895B3
:101860006F927F928F929F92AF92BF92CF92DF92B0
:10187000EF92FF920F931F93CF93DF93EC010097AA
:1018800081F4CB01DF91CF911F910F91FF90EF90E9
:10189000DF90CF90BF90AF909F908F907F906F9090
:1018A000B2CEFC01E60FF71F9C0122503109E2176E
:1018B000F30708F4A8C0D9010D911C9111970617E0
:1018C0001707A8F00530110508F49BC0C80104975C
:1018D0008617970708F495C002501109061B170BCD
:1018E000019311936D937C93CF0122DF8AC05B013A
:1018F000A01AB10A4C01800E911EA091C004B091B3
:10190000C10440E050E0E12CF12C109709F44AC0EA
:10191000A815B905D1F56D907C901197630182E00F
:10192000C80ED11CCA14DB0480F1A3014A195B095B
:101930006A0182E0C80ED11C1296BC9012971396D1
:10194000AC91B5E0CB16D10440F0B282A3835183B1
:101950004083D9016D937C930AC00E5F1F4FC30172
:10196000800F911FF90191838083EB2DFA2FE114F1
:10197000F10431F0D7011396FC93EE93129741C016
:10198000F093C104E093C0043CC08D919C911197E9
:101990004817590708F4AC017D0112960D90BC91CF
:1019A000A02DB3CF8091BE049091BF0488159905F6
:1019B000E1F446175707C8F480911302909114027E
:1019C000009741F48DB79EB74091170250911802CD
:1019D000841B950BE817F907B0F4F093BF04E0936C
:1019E000BE04F901718360830CC0CB010CDE7C0165
:1019F000009749F0A801BE011BD0CE0199DEC701B6
:101A000004C0CE0102C080E090E0DF91CF911F9131
:101A10000F91FF90EF90DF90CF90BF90AF909F908D
:101A20008F907F906F90089581E090E0F89419C0B6
:101A3000FB01DC0102C001900D9241505040D8F7EB
:101A40000895FB01DC018D91019080190110D9F3FB
:101A5000990B0895FB01DC0101900D920020E1F744
:101A6000089511E0C5E1D1E000E005C0802FFE013E
:101A7000C2DD2196011DC631D10780E00807B1F70C
:041A8000F894FFCF08
:101A840001310431043104310431043104310431AD
:101A94000401010000C20480000000000046028E20
:101AA40001D6018C020702E501F9010D0A00536514
:101AB4006D2070726573656EC3A76120706F7220AC
:101AC40035206D69756E746F732100506173736F87
:101AD40075206D6169732031206D696E75746F2E88
:101AE400204465736C6967616E646F2100504D31E9
:101AF4007C00504D307C005055310050553000442E
:101B040065736C6967616D656E746F20696E696376
:101B14006961646F2100707265734D454741203DD2
:101B2400200020202070726573554E4F203D200008
:00000001FF
