:100000000C9463000C94BD040C9496040C94E404CA
:100010000C94E4040C94E4040C948B000C948B007A
:100020000C948B000C948B000C948B000C948B0024
:100030000C948B000C948B000C948B000C948B0014
:100040000C94F4030C948B000C9464040C943E0404
:100050000C948B000C948B000C948B000C948B00F4
:100060000C948B000C948B0000000008000201002F
:100070000003040700000000000000000000000072
:10008000250028002B0000000000240027002A0083
:1000900000000000230026002900040404040404D6
:1000A0000404020202020202030303030303010227
:1000B00004081020408001020408102001020408F6
:1000C00010205E056A0811241FBECFEFD8E0DEBF06
:1000D000CDBF22E0A0E6B1E001C01D92A437B20777
:1000E000E1F711E0A0E0B1E0E6E4F6E102C005903E
:1000F0000D92A036B107D9F710E0C2E6D0E004C0F7
:100100002197FE010E94FB08C136D107C9F70E9462
:100110005E060C94160B0C9400002FB7F894809197
:10012000AA019091AB01A091AC01B091AD012FBF9C
:100130008093530290935402A0935502B0935602B9
:10014000E0914B02F0914C020284F385E02D8BE4A8
:1001500092E0099597FF26C02FB7F8948091AA01E5
:100160009091AB01A091AC01B091AD012FBF409136
:100170005302509154026091550270915602841BB3
:10018000950BA60BB70B40914F0250915002609116
:1001900051027091520284179507A607B70780F2A3
:1001A0008FEF9FEF08950895CF92DF92EF92FF9225
:1001B0000F931F93CF93DF936C017A018B01C0E003
:1001C000D0E0CE15DF0589F0D8016D918D01D60103
:1001D000ED91FC910190F081E02DC6010995892BEC
:1001E00011F47E0102C02196ECCFC701DF91CF91BF
:1001F0001F910F91FF90EF90DF90CF900895FC0139
:10020000538D448D252F30E0842F90E0821B930B7B
:10021000541710F0CF96089501970895FC01918D21
:10022000828D981761F0828DDF01A80FB11D5D9658
:100230008C91928D9F5F9F73928F90E008958FEFC6
:100240009FEF0895FC01918D828D981731F0828D7A
:10025000E80FF11D858D90E008958FEF9FEF0895D1
:10026000FC01918D228D892F90E0805C9F4F821B35
:1002700091098F73992708958EEA91E00E943001C9
:1002800021E0892B09F420E0822F0895FC01848D60
:10029000DF01A80FB11DA35ABF4F2C91848D90E0B0
:1002A00001968F739927848FA689B7892C93A0898B
:1002B000B1898C9180648C93938D848D981306C042
:1002C0000288F389E02D80818F7D80830895EF92ED
:1002D000FF920F931F93CF93DF93EC0181E0888F00
:1002E0009B8D8C8D981305C0E889F989808185FDE7
:1002F00024C0F62E0B8D10E00F5F1F4F0F731127D8
:10030000E02E8C8DE8120CC00FB607FCFACFE889FE
:10031000F989808185FFF5CFCE010E944601F1CF9A
:100320008B8DFE01E80FF11DE35AFF4FF0820B8F1A
:10033000EA89FB898081806207C0EE89FF8960833A
:10034000E889F98980818064808381E090E0DF9191
:10035000CF911F910F91FF90EF900895CF93DF936E
:10036000EC01888D8823C9F0EA89FB89808185FDAD
:1003700005C0A889B9898C9186FD0FC00FB607FC0E
:10038000F5CF808185FFF2CFA889B9898C9185FF4F
:10039000EDCFCE010E944601E7CFDF91CF910895C6
:1003A00080E090E0892B29F00E943C0181110C949F
:1003B00000000895833081F028F4813099F0823074
:1003C000A1F008958730A9F08830B9F08430D1F4D5
:1003D000809180008F7D03C0809180008F77809313
:1003E0008000089584B58F7702C084B58F7D84BD69
:1003F00008958091B0008F7703C08091B0008F7D09
:100400008093B0000895CF93DF93EBE6F0E0849102
:10041000E1EBF0E0D491EDE9F0E0C491CC2391F070
:1004200081110E94DA01EC2FF0E0EE0FFF1FE05780
:10043000FF4FA591B491EC91ED2381E090E021F480
:1004400080E002C080E090E0DF91CF9108950E94AB
:10045000030221E0892B09F420E02093A4010895F0
:100460001F93CF93DF93282F30E0F901E859FF4F16
:100470008491F901E255FF4FD491F901E656FF4FFF
:10048000C491CC23C9F0162F81110E94DA01EC2F00
:10049000F0E0EE0FFF1FE458FF4FA591B4918FB726
:1004A000F894111105C09C91ED2FE095E92302C04D
:1004B000EC91ED2BEC938FBFDF91CF911F910895BD
:1004C00008952091A2013091A3012817390771F4F2
:1004D0009091A0018091A101981741F0E091A001B5
:1004E000F0E0E05AFE4F808190E008958FEF9FEF9B
:1004F000089508951F93CF93DF93DC015C962D91AF
:100500003C915D972115310539F481E090E0139617
:100510009C938E9312973DC05196ED91FC9152970A
:1005200050969C915097892F80951FB75E964C915D
:100530005E9741FB772770F941FD6095F894408103
:10054000772311F0492B01C048234083E90121970B
:10055000F1F748E0508160FF02C0592B01C05823D9
:100560005083E9012197F1F76695415099F7772378
:1005700021F090818923808303C08081982B908310
:100580001FBF5C968D919C915D970197F1F721E0DB
:1005900030E0C901DF91CF911F9108952091A20110
:1005A0003091A3012817390771F48091A10120919E
:1005B000A00190E0805C9F4F821B910960E470E095
:1005C0000E94B108089580E090E008952091A20172
:1005D0003091A30128173907B9F49091A0018091B7
:1005E000A101981789F0E091A001F0E0E05AFE4FD8
:1005F00080812091A00130E02F5F3F4F2F73332780
:100600002093A00190E008958FEF9FEF0895E0916F
:10061000A201F091A301E817F90769F4A389B4894D
:100620009C918589809589238C931092A3011092C7
:10063000A20181E0089580E00895089580E090E0AF
:1006400008956115710579F0FB0101900020E9F72B
:100650003197AF01461B570BDC01ED91FC910280F5
:10066000F381E02D099480E090E008958F929F92AD
:10067000AF92BF920F931F93CF93DF93CDB7DEB7A7
:10068000A1970FB6F894DEBF0FBECDBF19A24230BE
:1006900008F44AE08E010F5D1F4F842E912CA12C8F
:1006A000B12CA50194010E94C508E62FB901CA0129
:1006B00001501109EA3014F4E05D01C0E95CD80191
:1006C000EC93232B242B252B61F7B8018EEA91E0C4
:1006D0000E942103A1960FB6F894DEBF0FBECDBFD6
:1006E000DF91CF911F910F91BF90AF909F908F900E
:1006F0000895CF92DF92EF92FF92CF93DF936B0139
:100700007C01E091AE01F091AF010190F081E02D0C
:100710006DE28EEA91E00995EC0166277727CB011F
:100720006C197D098E099F094AE00E9436038C0FDF
:100730009D1FDF91CF91FF90EF90DF90CF900895B4
:100740000E94F80A0F931F93CF93DF93EC018881E7
:100750009981009729F02A813B812617370788F471
:100760008B016F5F7F4F0E942E0A009761F0998383
:1007700088831B830A832C813D81232B11F4FC0188
:10078000108281E001C080E0DF91CF911F910F9135
:100790000895EF92FF920F931F93CF93DF93EC0195
:1007A0007B018A01BA010E94A2032881398181114B
:1007B0000DC02115310519F0C9010E949609198251
:1007C00018821D821C821B821A8206C01D830C8324
:1007D000B701C9010E940F0BCE01DF91CF911F918C
:1007E0000F91FF90EF9008951F920F920FB60F9206
:1007F00011242F933F938F939F93AF93BF93809137
:10080000AA019091AB01A091AC01B091AD013091E2
:10081000A90123E0230F2D3720F40196A11DB11D5E
:1008200005C026E8230F0296A11DB11D2093A90142
:100830008093AA019093AB01A093AC01B093AD015A
:100840008091A5019091A601A091A701B091A80166
:100850000196A11DB11D8093A5019093A601A093BF
:10086000A701B093A801BF91AF919F918F913F9144
:100870002F910F900FBE0F901F9018951F920F92FF
:100880000FB60F9211242F933F934F935F936F9363
:100890007F938F939F93AF93BF93EF93FF938EEAD2
:1008A00091E00E944601FF91EF91BF91AF919F911E
:1008B0008F917F916F915F914F913F912F910F9009
:1008C0000FBE0F901F9018951F920F920FB60F92A8
:1008D00011242F938F939F93EF93FF93E091BE0189
:1008E000F091BF018081E091C401F091C50182FDCA
:1008F00012C090818091C7018F5F8F732091C801D2
:10090000821751F0E091C701F0E0E255FE4F958F5C
:100910008093C70101C08081FF91EF919F918F91DA
:100920002F910F900FBE0F901F9018951F920F924E
:100930000FB60F9211242F933F934F935F936F93B2
:100940007F938F939F93AF93BF93EF93FF93E09128
:100950000301F09104010995FF91EF91BF91AF91CF
:100960009F918F917F916F915F914F913F912F91C7
:100970000F900FBE0F901F9018951F920F920FB6F9
:100980000F9211242F933F934F935F936F937F9315
:100990008F939F93AF93BF93EF93FF93E0910101E8
:1009A000F09102010995FF91EF91BF91AF919F9155
:1009B0008F917F916F915F914F913F912F910F9008
:1009C0000FBE0F901F9018951F920F920FB60F92A7
:1009D00011242F933F934F935F936F937F938F9344
:1009E0009F93AF93BF93EF93FF93E091A201F09198
:1009F000A301309709F451C0968DA685B7858585EA
:100A000091FF04C09C91892329F447C09C918923BC
:100A100009F043C0A389B4899C9185898095892375
:100A20008C93868997890197F1F7608D718DA685E2
:100A3000B785558538E020E0CB010197F1F7822F8B
:100A400090E095958795282F4C91452309F02068D3
:100A5000315091F7868D81FD20958091A10190E024
:100A600001968F7399273091A001381749F0A09112
:100A7000A101B0E0A05ABE4F2C938093A10103C006
:100A8000868D8160868F828D938D0197F1F7A38982
:100A9000B4899C918589892B8C93FF91EF91BF91AB
:100AA000AF919F918F917F916F915F914F913F9106
:100AB0002F910F900FBE0F901F901895CF92DF923D
:100AC000EF92FF92CF93DF931092B1011092B00199
:100AD00068EEC62E63E0D62EE12CF12CC092B20156
:100AE000D092B301E092B401F092B50181E191E0BE
:100AF0009093AF018093AE0185EC90E09093BB01A1
:100B00008093BA0184EC90E09093BD018093BC0186
:100B100080EC90E09093BF018093BE0181EC90E067
:100B20009093C1018093C00182EC90E09093C30147
:100B30008093C20186EC90E09093C5018093C4013C
:100B40001092C7011092C8011092C9011092CA01F7
:100B500010926B0210926A0210926D0210926C0257
:100B600010926F0210926E0240E050E065E471E076
:100B70008AE692E00E94C90310924E0210924D0242
:100B8000C0924F02D0925002E0925102F092520273
:100B900083E291E090934C0280934B0210926202A8
:100BA0001092610210926402109263021092660227
:100BB00010926502109268021092670260916902B9
:100BC0006E7F6D7F609369026695617081E0682732
:100BD00085E00E943002E3EBF0E02491EFE9F0E0E1
:100BE0008491882399F090E0880F991FFC01EA57BF
:100BF000FF4FA591B491FC01E458FF4F859194916A
:100C00008FB7F894EC91E22BEC938FBFE3EBF0E01D
:100C1000E491E0935B02EFE9F0E0E491F0E0EE0FA5
:100C2000FF1FE458FF4F8591949190935D0280934C
:100C30005C02E2EBF0E02491EEE9F0E0849188239D
:100C4000C1F090E0880F991FFC01EA57FF4FC59152
:100C5000D491FC01E458FF4FA591B4919FB7F8944B
:100C60008881E22FE0958E2388838C91E823EC9392
:100C70009FBF8091690281FD04C061E084E00E9411
:100C8000300284E080935702E2EBF0E0E491E093DD
:100C90005802EEE9F0E0E491F0E0EE0FFF1FE057BC
:100CA000FF4F8591949190935A0280935902DF915E
:100CB000CF91FF90EF90DF90CF900895CF93DF9387
:100CC000CDB7DEB728970FB6F894DEBF0FBECDBF05
:100CD000789484B5826084BD84B5816084BD85B517
:100CE000826085BD85B5816085BD80916E00816023
:100CF00080936E00109281008091810082608093C9
:100D000081008091810081608093810080918000CA
:100D10008160809380008091B10084608093B100F5
:100D20008091B00081608093B00080917A008460EF
:100D300080937A0080917A00826080937A0080911B
:100D40007A00816080937A0080917A008068809335
:100D50007A001092C100E091BE01F091BF0182E0E3
:100D60008083E091BA01F091BB011082E091BC0157
:100D7000F091BD018FEC80831092C601E091C20119
:100D8000F091C30186E08083E091C001F091C10140
:100D9000808180618083E091C001F091C1018081F8
:100DA00088608083E091C001F091C10180818068FA
:100DB0008083E091C001F091C10180818F7D8083AB
:100DC0001092660210926502109264021092630201
:100DD00010926202109261028DE991E09093680294
:100DE0008093670290915702963108F057C02DEB1F
:100DF00030E030936202209361022BE931E03093BE
:100E00006402209363022CE231E030936602209367
:100E1000650220916800983050F031E09E3008F46F
:100E200030E081E001C0880F3A95EAF701C084E024
:100E3000822B80936800983038F09E3040F09631D5
:100E400048F020E030E008C02DE630E005C02BE699
:100E500030E002C02CE630E030935F0220935E0267
:100E6000983030F481E001C0880F9A95EAF70EC0FF
:100E7000292F30E09E3018F42850310902C02E503E
:100E8000310981E001C0880F2A95EAF7809360025A
:100E900080916702909168020197F1F78091650255
:100EA00090916602892B21F18091A2019091A3017A
:100EB00022E08B349207E1F0009711F00E940703C3
:100EC000809169028E7F809369021092A101109235
:100ED000A0018BE492E09093A3018093A201E091A2
:100EE0005E02F0915F02908180916002892B808385
:100EF0000E94030221E0892B09F420E02093A40141
:100F000087E292E09093040180930301809169004D
:100F1000837F846080936900E99AFF24F394909121
:100F2000A40180910601981789F08091A40188237B
:100F300019F061E371E002C066E371E08BE492E0D6
:100F40000E9421038091A401809306018BE492E02A
:100F50000E94CE02892B09F498C01A8219821C8241
:100F60001B821E821D8240E050E065E471E0CE01EC
:100F700001960E94C9030E948D0097FD1EC08C3708
:100F80009105D9F08F8318860D811E810F5F1F4F49
:100F9000B801CE0101960E94A203882361F3298142
:100FA0003A818D819E81BE01695F7F4F820F931FC1
:100FB0000E940F0B1E830D83DECF80916A029091F9
:100FC0006B020097C9F069817A816115710591F012
:100FD00040916C0250916D022D813E814217530762
:100FE00048F00E940F0B8D819E8190936F02809339
:100FF0006E0218C00E94960989819A8190936B02B3
:1010000080936A028B819C8190936D0280936C0225
:101010008D819E8190936F0280936E021A82198255
:101020001C821B821E821D8289819A810E949609E0
:1010300000916E0210916F0201151105B9F0C09078
:101040006A02D0906B026BE371E0C6010E94060B4E
:10105000892B19F4F092050109C06FE371E0C60114
:101060000E94060B892B11F41092050160916A020F
:1010700070916B02A8018EEA91E00E94D40063E4B3
:1010800071E08EEA91E00E94210366E471E08EEA4D
:1010900091E00E9421036091050170E080E090E002
:1010A0004AE00E94360362E571E08EEA91E00E9418
:1010B00021036091A40170E080E090E04AE00E948A
:1010C000360363E471E08EEA91E00E9421030E94FE
:1010D000D00125CF83E291E090934C0280934B02A4
:1010E0008BE492E00E94070380916A0290916B0268
:1010F0000C9496092F923F924F925F926F927F923B
:101100008F929F92AF92BF92CF92DF92EF92FF9217
:101110000F931F93CF93DF93CDB7DEB7CA1BDB0BC3
:101120000FB6F894DEBF0FBECDBF09942A88398868
:1011300048885F846E847D848C849B84AA84B9846F
:10114000C884DF80EE80FD800C811B81AA81B9817B
:10115000CE0FD11D0FB6F894DEBF0FBECDBFED018F
:10116000089597FB072E16F4009407D077FD09D059
:101170000E94E70807FC05D03EF4909581959F4FAB
:101180000895709561957F4F0895A1E21A2EAA1BCC
:10119000BB1BFD010DC0AA1FBB1FEE1FFF1FA21727
:1011A000B307E407F50720F0A21BB30BE40BF50B24
:1011B000661F771F881F991F1A9469F760957095AD
:1011C000809590959B01AC01BD01CF010895AA1BAC
:1011D000BB1B51E107C0AA1FBB1FA617B70710F022
:1011E000A61BB70B881F991F5A95A9F78095909554
:1011F000BC01CD010895EE0FFF1F0590F491E02D85
:101200000994CF93DF938230910510F482E090E04F
:10121000E0917202F091730220E030E0C0E0D0E093
:10122000309711F14081518148175907C0F0481794
:10123000590761F482819381209719F09B838A83F7
:101240002BC0909373028093720226C02115310542
:1012500019F04217530718F49A01BE01DF01EF019C
:101260000280F381E02DDCCF2115310509F1281B27
:10127000390B2430310590F412968D919C9113977F
:101280006115710521F0FB019383828304C0909363
:10129000730280937202FD01329644C0FD01E20F99
:1012A000F31F81939193225031092D933C933AC0BF
:1012B0002091700230917102232B41F42091090199
:1012C00030910A013093710220937002209107013E
:1012D000309108012115310541F42DB73EB74091F9
:1012E0000B0150910C01241B350BE0917002F09121
:1012F0007102E217F307A0F42E1B3F0B28173907E2
:1013000078F0AC014E5F5F4F2417350748F04E0F61
:101310005F1F50937102409370028193919302C0BA
:10132000E0E0F0E0CF01DF91CF9108950F931F939C
:10133000CF93DF93009709F48CC0FC01329713829E
:10134000128200917202109173020115110581F44D
:1013500020813181820F931F2091700230917102A0
:101360002817390779F5F0937102E093700271C084
:10137000D80140E050E0AE17BF0750F412962D910F
:101380003C911397AD012115310509F1D901F3CF36
:101390009D01DA013383228360817181860F971F5B
:1013A0008217930769F4EC0128813981260F371FD2
:1013B0002E5F3F4F318320838A819B819383828379
:1013C000452B29F4F0937302E093720242C0139606
:1013D000FC93EE931297ED01499159919E01240FD0
:1013E000351FE217F30771F480819181840F951FF7
:1013F000029611969C938E938281938113969C936F
:101400008E931297E0E0F0E0D80112968D919C91B6
:101410001397009719F0F8018C01F6CF8D919C91EC
:1014200098012E5F3F4F820F931F209170023091E1
:1014300071022817390769F4309729F41092730262
:101440001092720202C013821282109371020093F2
:101450007002DF91CF911F910F910895A0E0B0E04D
:10146000E4E3FAE00C947E08EC01009721F4CB0150
:101470000E940109B8C0FC01E60FF71F9C01225031
:101480003109E217F30708F4ACC0D9010D911C91A2
:10149000119706171707B0F00530110508F49FC023
:1014A000C80104978617970708F499C002501109DC
:1014B000061B170B019311936D937C93CF010E9430
:1014C00096098DC05B01A01AB10A4C01800E911ED5
:1014D000A0917202B091730240E050E0E12CF12C37
:1014E000109709F44AC0A815B905D1F56D907C9004
:1014F0001197630182E0C80ED11CCA14DB0480F18D
:10150000A3014A195B096A0182E0C80ED11C129638
:10151000BC9012971396AC91B5E0CB16D10440F075
:10152000B282A38351834083D9016D937C930AC017
:101530000E5F1F4FC301800F911FF90191838083BC
:10154000EB2DFA2FE114F10431F0D7011396FC933F
:10155000EE93129744C0F0937302E09372023FC07F
:101560008D919C9111974817590708F4AC017D01A2
:1015700012960D90BC91A02DB3CF809170029091E6
:10158000710288159905E1F446175707C8F4809150
:10159000070190910801009741F48DB79EB74091E3
:1015A0000B0150910C01841B950BE817F907C8F447
:1015B000F0937102E0937002F901718360830FC0B0
:1015C000CB010E9401097C01009759F0A801BE01DE
:1015D0000E94FD0ACE010E949609C70104C0CE01F7
:1015E00002C080E090E0CDB7DEB7EEE00C949A0840
:1015F00081E090E0F8940C94160BFB01DC0102C032
:1016000001900D9241505040D8F70895FB01DC0144
:101610008D91019080190110D9F3990B0895FB0168
:10162000DC0101900D920020E1F7089510E0C2E680
:10163000D0E004C0FE010E94FB082196C336D1070A
:06164000C9F7F894FFCF8A
:1016460001600260020101000074028000000000D7
:10165600006701D400FF00AE0130010E0122010037
:101666000000007A02D4001E037902CE02E602616F
:10167600025055317C005055307C00504D310050A1
:101686004D30000D0A00707265734D454741203D8F
:10169600200020202070726573554E4F203D20009B
:107E0000112484B714BE81FFF0D085E080938100F7
:107E100082E08093C00088E18093C10086E0809377
:107E2000C20080E18093C4008EE0C9D0259A86E02C
:107E300020E33CEF91E0309385002093840096BBD3
:107E4000B09BFECF1D9AA8958150A9F7CC24DD24C4
:107E500088248394B5E0AB2EA1E19A2EF3E0BF2EE7
:107E6000A2D0813461F49FD0082FAFD0023811F036
:107E7000013811F484E001C083E08DD089C08234E0
:107E800011F484E103C0853419F485E0A6D080C0E4
:107E9000853579F488D0E82EFF2485D0082F10E0AE
:107EA000102F00270E291F29000F111F8ED06801E7
:107EB0006FC0863521F484E090D080E0DECF843638
:107EC00009F040C070D06FD0082F6DD080E0C81688
:107ED00080E7D80618F4F601B7BEE895C0E0D1E017
:107EE00062D089930C17E1F7F0E0CF16F0E7DF06D8
:107EF00018F0F601B7BEE89568D007B600FCFDCFD4
:107F0000A601A0E0B1E02C9130E011968C91119780
:107F100090E0982F8827822B932B1296FA010C0160
:107F200087BEE89511244E5F5F4FF1E0A038BF0790
:107F300051F7F601A7BEE89507B600FCFDCF97BE46
:107F4000E89526C08437B1F42ED02DD0F82E2BD052
:107F50003CD0F601EF2C8F010F5F1F4F84911BD097
:107F6000EA94F801C1F70894C11CD11CFA94CF0C13
:107F7000D11C0EC0853739F428D08EE10CD085E9AC
:107F80000AD08FE07ACF813511F488E018D01DD067
:107F900080E101D065CF982F8091C00085FFFCCF94
:107FA0009093C60008958091C00087FFFCCF809118
:107FB000C00084FD01C0A8958091C6000895E0E648
:107FC000F0E098E1908380830895EDDF803219F02E
:107FD00088E0F5DFFFCF84E1DECF1F93182FE3DFCA
:107FE0001150E9F7F2DF1F91089580E0E8DFEE27F6
:047FF000FF270994CA
:027FFE00040479
:0400000300007E007B
:00000001FF
